{
  "_format": "hh-sol-artifact-1",
  "contractName": "Charity",
  "sourceName": "contracts/Charity.sol",
  "abi": [
    {
      "anonymous": false,
      "inputs": [
        {
          "indexed": true,
          "internalType": "address",
          "name": "previousOwner",
          "type": "address"
        },
        {
          "indexed": true,
          "internalType": "address",
          "name": "newOwner",
          "type": "address"
        }
      ],
      "name": "OwnershipTransferred",
      "type": "event"
    },
    {
      "anonymous": false,
      "inputs": [
        {
          "indexed": false,
          "internalType": "uint256",
          "name": "amount",
          "type": "uint256"
        },
        {
          "indexed": false,
          "internalType": "string",
          "name": "comment",
          "type": "string"
        }
      ],
      "name": "newDonation",
      "type": "event"
    },
    {
      "inputs": [],
      "name": "charityDescription",
      "outputs": [
        {
          "internalType": "string",
          "name": "",
          "type": "string"
        }
      ],
      "stateMutability": "view",
      "type": "function"
    },
    {
      "inputs": [],
      "name": "charityTitle",
      "outputs": [
        {
          "internalType": "string",
          "name": "",
          "type": "string"
        }
      ],
      "stateMutability": "view",
      "type": "function"
    },
    {
      "inputs": [],
      "name": "daysOfWar",
      "outputs": [
        {
          "internalType": "uint256",
          "name": "",
          "type": "uint256"
        }
      ],
      "stateMutability": "view",
      "type": "function"
    },
    {
      "inputs": [
        {
          "internalType": "string",
          "name": "_comment",
          "type": "string"
        }
      ],
      "name": "donate",
      "outputs": [],
      "stateMutability": "payable",
      "type": "function"
    },
    {
      "inputs": [],
      "name": "moneyRaised",
      "outputs": [
        {
          "internalType": "uint256",
          "name": "",
          "type": "uint256"
        }
      ],
      "stateMutability": "view",
      "type": "function"
    },
    {
      "inputs": [],
      "name": "myContribution",
      "outputs": [
        {
          "internalType": "string",
          "name": "",
          "type": "string"
        },
        {
          "internalType": "uint256",
          "name": "",
          "type": "uint256"
        }
      ],
      "stateMutability": "view",
      "type": "function"
    },
    {
      "inputs": [],
      "name": "owner",
      "outputs": [
        {
          "internalType": "address",
          "name": "",
          "type": "address"
        }
      ],
      "stateMutability": "view",
      "type": "function"
    },
    {
      "inputs": [],
      "name": "renounceOwnership",
      "outputs": [],
      "stateMutability": "nonpayable",
      "type": "function"
    },
    {
      "inputs": [
        {
          "internalType": "address payable",
          "name": "_to",
          "type": "address"
        }
      ],
      "name": "sendToOrganization",
      "outputs": [],
      "stateMutability": "payable",
      "type": "function"
    },
    {
      "inputs": [
        {
          "internalType": "string",
          "name": "_title",
          "type": "string"
        },
        {
          "internalType": "string",
          "name": "_description",
          "type": "string"
        }
      ],
      "name": "setNewCharity",
      "outputs": [],
      "stateMutability": "nonpayable",
      "type": "function"
    },
    {
      "inputs": [
        {
          "internalType": "uint256",
          "name": "_value",
          "type": "uint256"
        }
      ],
      "name": "setTarget",
      "outputs": [],
      "stateMutability": "nonpayable",
      "type": "function"
    },
    {
      "inputs": [],
      "name": "target",
      "outputs": [
        {
          "internalType": "uint256",
          "name": "",
          "type": "uint256"
        }
      ],
      "stateMutability": "view",
      "type": "function"
    },
    {
      "inputs": [],
      "name": "totalDonations",
      "outputs": [
        {
          "internalType": "uint32",
          "name": "",
          "type": "uint32"
        }
      ],
      "stateMutability": "view",
      "type": "function"
    },
    {
      "inputs": [
        {
          "internalType": "address",
          "name": "newOwner",
          "type": "address"
        }
      ],
      "name": "transferOwnership",
      "outputs": [],
      "stateMutability": "nonpayable",
      "type": "function"
    }
  ],
  "bytecode": "0x608060405234801561001057600080fd5b5061002d61002261003260201b60201c565b61003a60201b60201c565b6100fe565b600033905090565b60008060009054906101000a900473ffffffffffffffffffffffffffffffffffffffff169050816000806101000a81548173ffffffffffffffffffffffffffffffffffffffff021916908373ffffffffffffffffffffffffffffffffffffffff1602179055508173ffffffffffffffffffffffffffffffffffffffff168173ffffffffffffffffffffffffffffffffffffffff167f8be0079c531659141344cd1fd0a4f28419497f9722a3daafe3b4186f6b6457e060405160405180910390a35050565b6113d58061010d6000396000f3fe6080604052600436106100dd5760003560e01c8063a2dd6bfc1161007f578063b5aebc8011610059578063b5aebc801461026a578063d4b8399214610286578063de2ed893146102b1578063f2fde38b146102dc576100dd565b8063a2dd6bfc146101f9578063a90e92bc14610225578063b480eac014610241576100dd565b8063715018a6116100bb578063715018a6146101635780638da5cb5b1461017a578063951b868d146101a557806397e16013146101ce576100dd565b806330261e6f146100e25780634ab7288b1461010d5780634b0b945e14610138575b600080fd5b3480156100ee57600080fd5b506100f7610305565b6040516101049190610efe565b60405180910390f35b34801561011957600080fd5b50610122610393565b60405161012f9190610efe565b60405180910390f35b34801561014457600080fd5b5061014d610421565b60405161015a9190610ff0565b60405180910390f35b34801561016f57600080fd5b50610178610427565b005b34801561018657600080fd5b5061018f61043b565b60405161019c9190610ee3565b60405180910390f35b3480156101b157600080fd5b506101cc60048036038101906101c79190610c36565b610464565b005b3480156101da57600080fd5b506101e361049e565b6040516101f09190610ff0565b60405180910390f35b34801561020557600080fd5b5061020e6104e4565b60405161021c929190610f20565b60405180910390f35b61023f600480360381019061023a9190610bcc565b6105b9565b005b34801561024d57600080fd5b5061026860048036038101906102639190610ca2565b6106dd565b005b610284600480360381019061027f9190610bf5565b610732565b005b34801561029257600080fd5b5061029b6107bb565b6040516102a89190610ff0565b60405180910390f35b3480156102bd57600080fd5b506102c66107c1565b6040516102d3919061103b565b60405180910390f35b3480156102e857600080fd5b5061030360048036038101906102fe9190610ba3565b6107d7565b005b600380546103129061122e565b80601f016020809104026020016040519081016040528092919081815260200182805461033e9061122e565b801561038b5780601f106103605761010080835404028352916020019161038b565b820191906000526020600020905b81548152906001019060200180831161036e57829003601f168201915b505050505081565b600280546103a09061122e565b80601f01602080910402602001604051908101604052809291908181526020018280546103cc9061122e565b80156104195780601f106103ee57610100808354040283529160200191610419565b820191906000526020600020905b8154815290600101906020018083116103fc57829003601f168201915b505050505081565b60055481565b61042f61085b565b61043960006108d9565b565b60008060009054906101000a900473ffffffffffffffffffffffffffffffffffffffff16905090565b61046c61085b565b8160029080519060200190610482929190610a59565b508060039080519060200190610499929190610a59565b505050565b600060016018603c80636216f4b0426104b7919061115a565b6104c19190611129565b6104cb9190611129565b6104d59190611129565b6104df91906110d3565b905090565b6060600080600660003373ffffffffffffffffffffffffffffffffffffffff1673ffffffffffffffffffffffffffffffffffffffff168152602001908152602001600020549050600081111561057657806040518060400160405280601881526020017f5468616e6b7320666f7220796f757220737570706f72742e00000000000000008152509092509250506105b5565b60006040518060400160405280601981526020017f596f752068617665206e6f7420646f6e61746564207965742e000000000000008152509092509250505b9091565b6105c161085b565b60006001541180156105d4575060015447115b610613576040517f08c379a000000000000000000000000000000000000000000000000000000000815260040161060a90610fb0565b60405180910390fd5b8073ffffffffffffffffffffffffffffffffffffffff166108fc6001549081150290604051600060405180830381858888f1935050505015801561065b573d6000803e3d6000fd5b5060006001819055506000600460006101000a81548163ffffffff021916908363ffffffff160217905550600060058190555060405180602001604052806000815250600290805190602001906106b3929190610a59565b5060405180602001604052806000815250600390805190602001906106d9929190610a59565b5050565b6106e561085b565b60008111610728576040517f08c379a000000000000000000000000000000000000000000000000000000000815260040161071f90610fd0565b60405180910390fd5b8060018190555050565b60003411610775576040517f08c379a000000000000000000000000000000000000000000000000000000000815260040161076c90610f50565b60405180910390fd5b61077f333461099d565b7fb7c663e0fe31557d1772a0a28fc891d5b49895da53cc84de7f620f6e4ee3285234826040516107b092919061100b565b60405180910390a150565b60015481565b600460009054906101000a900463ffffffff1681565b6107df61085b565b600073ffffffffffffffffffffffffffffffffffffffff168173ffffffffffffffffffffffffffffffffffffffff16141561084f576040517f08c379a000000000000000000000000000000000000000000000000000000000815260040161084690610f70565b60405180910390fd5b610858816108d9565b50565b610863610a51565b73ffffffffffffffffffffffffffffffffffffffff1661088161043b565b73ffffffffffffffffffffffffffffffffffffffff16146108d7576040517f08c379a00000000000000000000000000000000000000000000000000000000081526004016108ce90610f90565b60405180910390fd5b565b60008060009054906101000a900473ffffffffffffffffffffffffffffffffffffffff169050816000806101000a81548173ffffffffffffffffffffffffffffffffffffffff021916908373ffffffffffffffffffffffffffffffffffffffff1602179055508173ffffffffffffffffffffffffffffffffffffffff168173ffffffffffffffffffffffffffffffffffffffff167f8be0079c531659141344cd1fd0a4f28419497f9722a3daafe3b4186f6b6457e060405160405180910390a35050565b6004600081819054906101000a900463ffffffff16809291906109bf90611260565b91906101000a81548163ffffffff021916908363ffffffff1602179055505080600560008282546109f091906110d3565b9250508190555080600660008473ffffffffffffffffffffffffffffffffffffffff1673ffffffffffffffffffffffffffffffffffffffff1681526020019081526020016000206000828254610a4691906110d3565b925050819055505050565b600033905090565b828054610a659061122e565b90600052602060002090601f016020900481019282610a875760008555610ace565b82601f10610aa057805160ff1916838001178555610ace565b82800160010185558215610ace579182015b82811115610acd578251825591602001919060010190610ab2565b5b509050610adb9190610adf565b5090565b5b80821115610af8576000816000905550600101610ae0565b5090565b6000610b0f610b0a84611087565b611056565b905082815260208101848484011115610b2757600080fd5b610b328482856111ec565b509392505050565b600081359050610b498161135a565b92915050565b600081359050610b5e81611371565b92915050565b600082601f830112610b7557600080fd5b8135610b85848260208601610afc565b91505092915050565b600081359050610b9d81611388565b92915050565b600060208284031215610bb557600080fd5b6000610bc384828501610b3a565b91505092915050565b600060208284031215610bde57600080fd5b6000610bec84828501610b4f565b91505092915050565b600060208284031215610c0757600080fd5b600082013567ffffffffffffffff811115610c2157600080fd5b610c2d84828501610b64565b91505092915050565b60008060408385031215610c4957600080fd5b600083013567ffffffffffffffff811115610c6357600080fd5b610c6f85828601610b64565b925050602083013567ffffffffffffffff811115610c8c57600080fd5b610c9885828601610b64565b9150509250929050565b600060208284031215610cb457600080fd5b6000610cc284828501610b8e565b91505092915050565b610cd48161118e565b82525050565b6000610ce5826110b7565b610cef81856110c2565b9350610cff8185602086016111fb565b610d0881611349565b840191505092915050565b6000610d20601f836110c2565b91507f446f6e6174696f6e2063616e6e6f74206265207472616e736665727265642e006000830152602082019050919050565b6000610d606026836110c2565b91507f4f776e61626c653a206e6577206f776e657220697320746865207a65726f206160008301527f64647265737300000000000000000000000000000000000000000000000000006020830152604082019050919050565b6000610dc66020836110c2565b91507f4f776e61626c653a2063616c6c6572206973206e6f7420746865206f776e65726000830152602082019050919050565b6000610e066045836110c2565b91507f5761697420666f72206d6f726520646f6e6174696f6e7320746f20686176652060008301527f656e6f7567682062616c616e6365206f722073657420636f727265637420746160208301527f726765742e0000000000000000000000000000000000000000000000000000006040830152606082019050919050565b6000610e926015836110c2565b91507f5461726765742063616e6e6f74206265207365742e00000000000000000000006000830152602082019050919050565b610ece816111d2565b82525050565b610edd816111dc565b82525050565b6000602082019050610ef86000830184610ccb565b92915050565b60006020820190508181036000830152610f188184610cda565b905092915050565b60006040820190508181036000830152610f3a8185610cda565b9050610f496020830184610ec5565b9392505050565b60006020820190508181036000830152610f6981610d13565b9050919050565b60006020820190508181036000830152610f8981610d53565b9050919050565b60006020820190508181036000830152610fa981610db9565b9050919050565b60006020820190508181036000830152610fc981610df9565b9050919050565b60006020820190508181036000830152610fe981610e85565b9050919050565b60006020820190506110056000830184610ec5565b92915050565b60006040820190506110206000830185610ec5565b81810360208301526110328184610cda565b90509392505050565b60006020820190506110506000830184610ed4565b92915050565b6000604051905081810181811067ffffffffffffffff8211171561107d5761107c61131a565b5b8060405250919050565b600067ffffffffffffffff8211156110a2576110a161131a565b5b601f19601f8301169050602081019050919050565b600081519050919050565b600082825260208201905092915050565b60006110de826111d2565b91506110e9836111d2565b9250827fffffffffffffffffffffffffffffffffffffffffffffffffffffffffffffffff0382111561111e5761111d61128d565b5b828201905092915050565b6000611134826111d2565b915061113f836111d2565b92508261114f5761114e6112bc565b5b828204905092915050565b6000611165826111d2565b9150611170836111d2565b9250828210156111835761118261128d565b5b828203905092915050565b6000611199826111b2565b9050919050565b60006111ab826111b2565b9050919050565b600073ffffffffffffffffffffffffffffffffffffffff82169050919050565b6000819050919050565b600063ffffffff82169050919050565b82818337600083830152505050565b60005b838110156112195780820151818401526020810190506111fe565b83811115611228576000848401525b50505050565b6000600282049050600182168061124657607f821691505b6020821081141561125a576112596112eb565b5b50919050565b600061126b826111dc565b915063ffffffff8214156112825761128161128d565b5b600182019050919050565b7f4e487b7100000000000000000000000000000000000000000000000000000000600052601160045260246000fd5b7f4e487b7100000000000000000000000000000000000000000000000000000000600052601260045260246000fd5b7f4e487b7100000000000000000000000000000000000000000000000000000000600052602260045260246000fd5b7f4e487b7100000000000000000000000000000000000000000000000000000000600052604160045260246000fd5b6000601f19601f8301169050919050565b6113638161118e565b811461136e57600080fd5b50565b61137a816111a0565b811461138557600080fd5b50565b611391816111d2565b811461139c57600080fd5b5056fea2646970667358221220e53930318610323efffe89ef504d074aa44635981f1d3362f95833646675657c64736f6c63430008000033",
  "linkReferences": {},
  "deployedLinkReferences": {}
}